{
  "contractName": "Sensor",
  "abi": [
    {
      "anonymous": false,
      "inputs": [
        {
          "indexed": false,
          "internalType": "string",
          "name": "message",
          "type": "string"
        }
      ],
      "name": "Message",
      "type": "event"
    },
    {
      "inputs": [
        {
          "internalType": "string",
          "name": "",
          "type": "string"
        }
      ],
      "name": "sensor_finder",
      "outputs": [
        {
          "internalType": "uint256",
          "name": "",
          "type": "uint256"
        }
      ],
      "stateMutability": "view",
      "type": "function",
      "constant": true
    },
    {
      "inputs": [
        {
          "internalType": "uint256",
          "name": "",
          "type": "uint256"
        }
      ],
      "name": "sensors",
      "outputs": [
        {
          "internalType": "string",
          "name": "iotId",
          "type": "string"
        },
        {
          "internalType": "string",
          "name": "companyId",
          "type": "string"
        }
      ],
      "stateMutability": "view",
      "type": "function",
      "constant": true
    },
    {
      "inputs": [
        {
          "internalType": "string",
          "name": "_iotId",
          "type": "string"
        },
        {
          "internalType": "string",
          "name": "_companyId",
          "type": "string"
        }
      ],
      "name": "storeIOT",
      "outputs": [],
      "stateMutability": "nonpayable",
      "type": "function"
    },
    {
      "inputs": [
        {
          "internalType": "string",
          "name": "_iotId",
          "type": "string"
        },
        {
          "internalType": "string",
          "name": "_companyId",
          "type": "string"
        }
      ],
      "name": "deleteIOT",
      "outputs": [],
      "stateMutability": "nonpayable",
      "type": "function"
    },
    {
      "inputs": [
        {
          "internalType": "string",
          "name": "_companyId",
          "type": "string"
        }
      ],
      "name": "getIOts",
      "outputs": [
        {
          "components": [
            {
              "internalType": "string",
              "name": "iotId",
              "type": "string"
            },
            {
              "internalType": "string",
              "name": "companyId",
              "type": "string"
            }
          ],
          "internalType": "struct Sensor.sensor[]",
          "name": "",
          "type": "tuple[]"
        }
      ],
      "stateMutability": "view",
      "type": "function",
      "constant": true
    }
  ],
  "bytecode": "0x608060405234801561001057600080fd5b506113fb806100206000396000f3fe608060405234801561001057600080fd5b50600436106100575760003560e01c806329b1709e1461005c578063412f2e8214610078578063972277c7146100a9578063c42e37d9146100d9578063cf66fd14146100f5575b600080fd5b610076600480360381019061007191906109b4565b610125565b005b610092600480360381019061008d9190610a62565b610306565b6040516100a0929190610b0e565b60405180910390f35b6100c360048036038101906100be9190610b45565b61044a565b6040516100d09190610cde565b60405180910390f35b6100f360048036038101906100ee91906109b4565b610743565b005b61010f600480360381019061010a9190610b45565b610812565b60405161011c9190610d0f565b60405180910390f35b60006001836040516101379190610d66565b90815260200160405180910390205490506000810361018b577f51a7f65c6325882f237d4aeb43228179cfad48b868511d508e24b4437a81913760405161017d90610dc9565b60405180910390a150610302565b818051906020012060006001836101a29190610e18565b815481106101b3576101b2610e4c565b5b90600052602060002090600202016001016040516101d19190610f7e565b604051809103902014610219577f51a7f65c6325882f237d4aeb43228179cfad48b868511d508e24b4437a81913760405161020b90611007565b60405180910390a150610302565b604051806040016040528060405180602001604052806000815250815260200160405180602001604052806000815250815250600060018361025b9190610e18565b8154811061026c5761026b610e4c565b5b9060005260206000209060020201600082015181600001908161028f91906111d3565b5060208201518160010190816102a591906111d3565b509050506001836040516102b99190610d66565b9081526020016040518091039020600090557f51a7f65c6325882f237d4aeb43228179cfad48b868511d508e24b4437a8191376040516102f8906112f1565b60405180910390a1505b5050565b6000818154811061031657600080fd5b906000526020600020906002020160009150905080600001805461033990610eaa565b80601f016020809104026020016040519081016040528092919081815260200182805461036590610eaa565b80156103b25780601f10610387576101008083540402835291602001916103b2565b820191906000526020600020905b81548152906001019060200180831161039557829003601f168201915b5050505050908060010180546103c790610eaa565b80601f01602080910402602001604051908101604052809291908181526020018280546103f390610eaa565b80156104405780601f1061041557610100808354040283529160200191610440565b820191906000526020600020905b81548152906001019060200180831161042357829003601f168201915b5050505050905082565b60606000808054905067ffffffffffffffff81111561046c5761046b610889565b5b60405190808252806020026020018201604052801561049a5781602001602082028036833780820191505090505b5090506000805b600080549050811015610537578480519060200120600082815481106104ca576104c9610e4c565b5b90600052602060002090600202016001016040516104e89190610f7e565b604051809103902003610524578083838151811061050957610508610e4c565b5b602002602001018181525050818061052090611311565b9250505b808061052f90611311565b9150506104a1565b5060008167ffffffffffffffff81111561055457610553610889565b5b60405190808252806020026020018201604052801561058d57816020015b61057a610840565b8152602001906001900390816105725790505b50905060005b828110156107375760008482815181106105b0576105af610e4c565b5b6020026020010151815481106105c9576105c8610e4c565b5b90600052602060002090600202016040518060400160405290816000820180546105f290610eaa565b80601f016020809104026020016040519081016040528092919081815260200182805461061e90610eaa565b801561066b5780601f106106405761010080835404028352916020019161066b565b820191906000526020600020905b81548152906001019060200180831161064e57829003601f168201915b5050505050815260200160018201805461068490610eaa565b80601f01602080910402602001604051908101604052809291908181526020018280546106b090610eaa565b80156106fd5780601f106106d2576101008083540402835291602001916106fd565b820191906000526020600020905b8154815290600101906020018083116106e057829003601f168201915b50505050508152505082828151811061071957610718610e4c565b5b6020026020010181905250808061072f90611311565b915050610593565b50809350505050919050565b60006040518060400160405280848152602001838152509080600181540180825580915050600190039060005260206000209060020201600090919091909150600082015181600001908161079891906111d3565b5060208201518160010190816107ae91906111d3565b5050506000805490506001836040516107c79190610d66565b9081526020016040518091039020819055507f51a7f65c6325882f237d4aeb43228179cfad48b868511d508e24b4437a819137604051610806906113a5565b60405180910390a15050565b6001818051602081018201805184825260208301602085012081835280955050505050506000915090505481565b604051806040016040528060608152602001606081525090565b6000604051905090565b600080fd5b600080fd5b600080fd5b600080fd5b6000601f19601f8301169050919050565b7f4e487b7100000000000000000000000000000000000000000000000000000000600052604160045260246000fd5b6108c182610878565b810181811067ffffffffffffffff821117156108e0576108df610889565b5b80604052505050565b60006108f361085a565b90506108ff82826108b8565b919050565b600067ffffffffffffffff82111561091f5761091e610889565b5b61092882610878565b9050602081019050919050565b82818337600083830152505050565b600061095761095284610904565b6108e9565b90508281526020810184848401111561097357610972610873565b5b61097e848285610935565b509392505050565b600082601f83011261099b5761099a61086e565b5b81356109ab848260208601610944565b91505092915050565b600080604083850312156109cb576109ca610864565b5b600083013567ffffffffffffffff8111156109e9576109e8610869565b5b6109f585828601610986565b925050602083013567ffffffffffffffff811115610a1657610a15610869565b5b610a2285828601610986565b9150509250929050565b6000819050919050565b610a3f81610a2c565b8114610a4a57600080fd5b50565b600081359050610a5c81610a36565b92915050565b600060208284031215610a7857610a77610864565b5b6000610a8684828501610a4d565b91505092915050565b600081519050919050565b600082825260208201905092915050565b60005b83811015610ac9578082015181840152602081019050610aae565b60008484015250505050565b6000610ae082610a8f565b610aea8185610a9a565b9350610afa818560208601610aab565b610b0381610878565b840191505092915050565b60006040820190508181036000830152610b288185610ad5565b90508181036020830152610b3c8184610ad5565b90509392505050565b600060208284031215610b5b57610b5a610864565b5b600082013567ffffffffffffffff811115610b7957610b78610869565b5b610b8584828501610986565b91505092915050565b600081519050919050565b600082825260208201905092915050565b6000819050602082019050919050565b600082825260208201905092915050565b6000610bd682610a8f565b610be08185610bba565b9350610bf0818560208601610aab565b610bf981610878565b840191505092915050565b60006040830160008301518482036000860152610c218282610bcb565b91505060208301518482036020860152610c3b8282610bcb565b9150508091505092915050565b6000610c548383610c04565b905092915050565b6000602082019050919050565b6000610c7482610b8e565b610c7e8185610b99565b935083602082028501610c9085610baa565b8060005b85811015610ccc5784840389528151610cad8582610c48565b9450610cb883610c5c565b925060208a01995050600181019050610c94565b50829750879550505050505092915050565b60006020820190508181036000830152610cf88184610c69565b905092915050565b610d0981610a2c565b82525050565b6000602082019050610d246000830184610d00565b92915050565b600081905092915050565b6000610d4082610a8f565b610d4a8185610d2a565b9350610d5a818560208601610aab565b80840191505092915050565b6000610d728284610d35565b915081905092915050565b7f494f5420646f65736e2774206578697374730000000000000000000000000000600082015250565b6000610db3601283610a9a565b9150610dbe82610d7d565b602082019050919050565b60006020820190508181036000830152610de281610da6565b9050919050565b7f4e487b7100000000000000000000000000000000000000000000000000000000600052601160045260246000fd5b6000610e2382610a2c565b9150610e2e83610a2c565b9250828203905081811115610e4657610e45610de9565b5b92915050565b7f4e487b7100000000000000000000000000000000000000000000000000000000600052603260045260246000fd5b7f4e487b7100000000000000000000000000000000000000000000000000000000600052602260045260246000fd5b60006002820490506001821680610ec257607f821691505b602082108103610ed557610ed4610e7b565b5b50919050565b600081905092915050565b60008190508160005260206000209050919050565b60008154610f0881610eaa565b610f128186610edb565b94506001821660008114610f2d5760018114610f4257610f75565b60ff1983168652811515820286019350610f75565b610f4b85610ee6565b60005b83811015610f6d57815481890152600182019150602081019050610f4e565b838801955050505b50505092915050565b6000610f8a8284610efb565b915081905092915050565b7f494f5420496420646f6573206e6f742062656c6f6e6720746f2073706563696660008201527f69656420636f6d70616e79204964000000000000000000000000000000000000602082015250565b6000610ff1602e83610a9a565b9150610ffc82610f95565b604082019050919050565b6000602082019050818103600083015261102081610fe4565b9050919050565b60008190508160005260206000209050919050565b60006020601f8301049050919050565b600082821b905092915050565b6000600883026110897fffffffffffffffffffffffffffffffffffffffffffffffffffffffffffffffff8261104c565b611093868361104c565b95508019841693508086168417925050509392505050565b6000819050919050565b60006110d06110cb6110c684610a2c565b6110ab565b610a2c565b9050919050565b6000819050919050565b6110ea836110b5565b6110fe6110f6826110d7565b848454611059565b825550505050565b600090565b611113611106565b61111e8184846110e1565b505050565b5b818110156111425761113760008261110b565b600181019050611124565b5050565b601f8211156111875761115881611027565b6111618461103c565b81016020851015611170578190505b61118461117c8561103c565b830182611123565b50505b505050565b600082821c905092915050565b60006111aa6000198460080261118c565b1980831691505092915050565b60006111c38383611199565b9150826002028217905092915050565b6111dc82610a8f565b67ffffffffffffffff8111156111f5576111f4610889565b5b6111ff8254610eaa565b61120a828285611146565b600060209050601f83116001811461123d576000841561122b578287015190505b61123585826111b7565b86555061129d565b601f19841661124b86611027565b60005b828110156112735784890151825560018201915060208501945060208101905061124e565b86831015611290578489015161128c601f891682611199565b8355505b6001600288020188555050505b505050505050565b7f494f542064657461696c73207375636365737366756c6c792064656c65746564600082015250565b60006112db602083610a9a565b91506112e6826112a5565b602082019050919050565b6000602082019050818103600083015261130a816112ce565b9050919050565b600061131c82610a2c565b91507fffffffffffffffffffffffffffffffffffffffffffffffffffffffffffffffff820361134e5761134d610de9565b5b600182019050919050565b7f494f542064657461696c73207375636365737366756c6c792073746f72656400600082015250565b600061138f601f83610a9a565b915061139a82611359565b602082019050919050565b600060208201905081810360008301526113be81611382565b905091905056fea26469706673582212202bde66691b7f3294ad3725ba327e33517cb8f90ae3c2271cd4bed3af54de292e64736f6c63430008130033",
  "immutableReferences": {},
  "source": "// SPDX-License-Identifier: MIT\npragma solidity ^0.8.17;\n\ncontract Sensor {\n    event Message(string message);\n    struct sensor {\n        string iotId;\n        string companyId;\n    }\n    sensor[] public sensors;\n    mapping(string => uint256) public sensor_finder;\n\n    function storeIOT(\n        string memory _iotId,\n        string memory _companyId\n    ) public {\n        sensors.push(\n            sensor(_iotId, _companyId)\n        );\n        sensor_finder[_iotId] = sensors.length;\n        emit Message(\"IOT details successfully stored\");\n    }\n\n    function deleteIOT(\n        string memory _iotId,\n        string memory _companyId\n    ) public {\n        uint256 index = sensor_finder[_iotId];\n        if (index == 0) {\n            emit Message(\"IOT doesn't exists\");\n            return;\n        }\n        if (\n            keccak256(bytes(sensors[index - 1].companyId)) !=\n            keccak256(bytes(_companyId))\n        ) {\n            emit Message(\n                \"IOT Id does not belong to specified company Id\"\n            );\n            return;\n        }\n\n        sensors[index - 1] = sensor(\"\", \"\");\n        delete sensor_finder[_iotId];\n        emit Message(\"IOT details successfully deleted\");\n    }\n\n    function getIOts(string memory _companyId)\n        public\n        view\n        returns (sensor[] memory)\n    {\n        uint256[] memory resultIndices = new uint256[](sensors.length);\n        uint256 count = 0;\n        for (uint256 i = 0; i < sensors.length; i++) {\n            if (\n                keccak256(bytes(sensors[i].companyId)) ==\n                keccak256(bytes(_companyId))\n            ) {\n                resultIndices[count] = i;\n                count++;\n            }\n        }\n        sensor[] memory result = new sensor[](count);\n        for (uint256 i = 0; i < count; i++) {\n            result[i] = sensors[resultIndices[i]];\n        }\n        return result;\n    }\n}\n",
  "sourcePath": "/home/mahir/New_code/GLOBAL BLOCKCHAIN/contracts/Sensor.sol",
  "compiler": {
    "name": "solc",
    "version": "0.8.19+commit.7dd6d404.Emscripten.clang"
  },
  "schemaVersion": "3.4.13",
  "updatedAt": "2023-06-12T18:05:32.862Z",
  "networkType": "ethereum",
  "devdoc": {
    "kind": "dev",
    "methods": {},
    "version": 1
  },
  "userdoc": {
    "kind": "user",
    "methods": {},
    "version": 1
  }
}