{
  "contractName": "Store",
  "abi": [
    {
      "anonymous": false,
      "inputs": [
        {
          "indexed": false,
          "internalType": "string",
          "name": "message",
          "type": "string"
        }
      ],
      "name": "Message",
      "type": "event"
    },
    {
      "inputs": [
        {
          "internalType": "string",
          "name": "",
          "type": "string"
        }
      ],
      "name": "data_finder",
      "outputs": [
        {
          "internalType": "uint256",
          "name": "",
          "type": "uint256"
        }
      ],
      "stateMutability": "view",
      "type": "function",
      "constant": true
    },
    {
      "inputs": [
        {
          "internalType": "uint256",
          "name": "",
          "type": "uint256"
        }
      ],
      "name": "sensorDataChain",
      "outputs": [
        {
          "internalType": "uint256",
          "name": "timestamp",
          "type": "uint256"
        },
        {
          "internalType": "string",
          "name": "iotId",
          "type": "string"
        },
        {
          "internalType": "string",
          "name": "data",
          "type": "string"
        }
      ],
      "stateMutability": "view",
      "type": "function",
      "constant": true
    },
    {
      "inputs": [
        {
          "internalType": "string",
          "name": "_iotId",
          "type": "string"
        },
        {
          "internalType": "string",
          "name": "_data",
          "type": "string"
        }
      ],
      "name": "storeData",
      "outputs": [],
      "stateMutability": "nonpayable",
      "type": "function"
    },
    {
      "inputs": [],
      "name": "getSensorData",
      "outputs": [
        {
          "internalType": "uint256",
          "name": "",
          "type": "uint256"
        },
        {
          "internalType": "string",
          "name": "",
          "type": "string"
        },
        {
          "internalType": "string",
          "name": "",
          "type": "string"
        }
      ],
      "stateMutability": "view",
      "type": "function",
      "constant": true
    }
  ],
  "bytecode": "0x608060405234801561001057600080fd5b50610cac806100206000396000f3fe608060405234801561001057600080fd5b506004361061004c5760003560e01c80634ece5b4c14610051578063702470911461006d5780637f2790411461009d578063c9f6f53d146100bd575b600080fd5b61006b60048036038101906100669190610635565b6100ef565b005b610087600480360381019061008291906106ad565b6101ce565b604051610094919061070f565b60405180910390f35b6100a56101fc565b6040516100b4939291906107a9565b60405180910390f35b6100d760048036038101906100d2919061081a565b610391565b6040516100e6939291906107a9565b60405180910390f35b600060405180606001604052804281526020018481526020018381525090806001815401808255809150506001900390600052602060002090600302016000909190919091506000820151816000015560208201518160010190816101549190610a53565b50604082015181600201908161016a9190610a53565b5050506000805490506001836040516101839190610b61565b9081526020016040518091039020819055507f51a7f65c6325882f237d4aeb43228179cfad48b868511d508e24b4437a8191376040516101c290610bc4565b60405180910390a15050565b6001818051602081018201805184825260208301602085012081835280955050505050506000915090505481565b6000606080600060016000805490506102159190610c13565b9050600080828154811061022c5761022b610c47565b5b90600052602060002090600302016040518060600160405290816000820154815260200160018201805461025f90610876565b80601f016020809104026020016040519081016040528092919081815260200182805461028b90610876565b80156102d85780601f106102ad576101008083540402835291602001916102d8565b820191906000526020600020905b8154815290600101906020018083116102bb57829003601f168201915b505050505081526020016002820180546102f190610876565b80601f016020809104026020016040519081016040528092919081815260200182805461031d90610876565b801561036a5780601f1061033f5761010080835404028352916020019161036a565b820191906000526020600020905b81548152906001019060200180831161034d57829003601f168201915b50505050508152505090508060000151816020015182604001519450945094505050909192565b600081815481106103a157600080fd5b90600052602060002090600302016000915090508060000154908060010180546103ca90610876565b80601f01602080910402602001604051908101604052809291908181526020018280546103f690610876565b80156104435780601f1061041857610100808354040283529160200191610443565b820191906000526020600020905b81548152906001019060200180831161042657829003601f168201915b50505050509080600201805461045890610876565b80601f016020809104026020016040519081016040528092919081815260200182805461048490610876565b80156104d15780601f106104a6576101008083540402835291602001916104d1565b820191906000526020600020905b8154815290600101906020018083116104b457829003601f168201915b5050505050905083565b6000604051905090565b600080fd5b600080fd5b600080fd5b600080fd5b6000601f19601f8301169050919050565b7f4e487b7100000000000000000000000000000000000000000000000000000000600052604160045260246000fd5b610542826104f9565b810181811067ffffffffffffffff821117156105615761056061050a565b5b80604052505050565b60006105746104db565b90506105808282610539565b919050565b600067ffffffffffffffff8211156105a05761059f61050a565b5b6105a9826104f9565b9050602081019050919050565b82818337600083830152505050565b60006105d86105d384610585565b61056a565b9050828152602081018484840111156105f4576105f36104f4565b5b6105ff8482856105b6565b509392505050565b600082601f83011261061c5761061b6104ef565b5b813561062c8482602086016105c5565b91505092915050565b6000806040838503121561064c5761064b6104e5565b5b600083013567ffffffffffffffff81111561066a576106696104ea565b5b61067685828601610607565b925050602083013567ffffffffffffffff811115610697576106966104ea565b5b6106a385828601610607565b9150509250929050565b6000602082840312156106c3576106c26104e5565b5b600082013567ffffffffffffffff8111156106e1576106e06104ea565b5b6106ed84828501610607565b91505092915050565b6000819050919050565b610709816106f6565b82525050565b60006020820190506107246000830184610700565b92915050565b600081519050919050565b600082825260208201905092915050565b60005b83811015610764578082015181840152602081019050610749565b60008484015250505050565b600061077b8261072a565b6107858185610735565b9350610795818560208601610746565b61079e816104f9565b840191505092915050565b60006060820190506107be6000830186610700565b81810360208301526107d08185610770565b905081810360408301526107e48184610770565b9050949350505050565b6107f7816106f6565b811461080257600080fd5b50565b600081359050610814816107ee565b92915050565b6000602082840312156108305761082f6104e5565b5b600061083e84828501610805565b91505092915050565b7f4e487b7100000000000000000000000000000000000000000000000000000000600052602260045260246000fd5b6000600282049050600182168061088e57607f821691505b6020821081036108a1576108a0610847565b5b50919050565b60008190508160005260206000209050919050565b60006020601f8301049050919050565b600082821b905092915050565b6000600883026109097fffffffffffffffffffffffffffffffffffffffffffffffffffffffffffffffff826108cc565b61091386836108cc565b95508019841693508086168417925050509392505050565b6000819050919050565b600061095061094b610946846106f6565b61092b565b6106f6565b9050919050565b6000819050919050565b61096a83610935565b61097e61097682610957565b8484546108d9565b825550505050565b600090565b610993610986565b61099e818484610961565b505050565b5b818110156109c2576109b760008261098b565b6001810190506109a4565b5050565b601f821115610a07576109d8816108a7565b6109e1846108bc565b810160208510156109f0578190505b610a046109fc856108bc565b8301826109a3565b50505b505050565b600082821c905092915050565b6000610a2a60001984600802610a0c565b1980831691505092915050565b6000610a438383610a19565b9150826002028217905092915050565b610a5c8261072a565b67ffffffffffffffff811115610a7557610a7461050a565b5b610a7f8254610876565b610a8a8282856109c6565b600060209050601f831160018114610abd5760008415610aab578287015190505b610ab58582610a37565b865550610b1d565b601f198416610acb866108a7565b60005b82811015610af357848901518255600182019150602085019450602081019050610ace565b86831015610b105784890151610b0c601f891682610a19565b8355505b6001600288020188555050505b505050505050565b600081905092915050565b6000610b3b8261072a565b610b458185610b25565b9350610b55818560208601610746565b80840191505092915050565b6000610b6d8284610b30565b915081905092915050565b7f53656e736f722064617461207375636365737366756c6c792073746f72656400600082015250565b6000610bae601f83610735565b9150610bb982610b78565b602082019050919050565b60006020820190508181036000830152610bdd81610ba1565b9050919050565b7f4e487b7100000000000000000000000000000000000000000000000000000000600052601160045260246000fd5b6000610c1e826106f6565b9150610c29836106f6565b9250828203905081811115610c4157610c40610be4565b5b92915050565b7f4e487b7100000000000000000000000000000000000000000000000000000000600052603260045260246000fdfea2646970667358221220587bd11151a2cd0f88b462d89b67264d09d074055f59589d3e44235a014a72d064736f6c63430008130033",
  "immutableReferences": {},
  "source": "// SPDX-License-Identifier: MIT\npragma solidity ^0.8.17;\n\ncontract Store {\n    event Message(string message);\n    struct SensorData {\n        uint timestamp;\n        string iotId;\n        string data;\n    }\n    SensorData[] public sensorDataChain;\n    mapping(string => uint256) public data_finder;\n\n    function storeData(\n        string memory _iotId,\n        string memory _data\n    ) public {\n        sensorDataChain.push(\n            SensorData(block.timestamp,_iotId, _data)\n        );\n        data_finder[_iotId] = sensorDataChain.length;\n        emit Message(\"Sensor data successfully stored\");\n    }\n\n    function getSensorData(\n    ) public view returns (uint, string memory, string memory) {\n        uint256 index = sensorDataChain.length - 1;\n\n        SensorData memory data = sensorDataChain[index];\n        return (data.timestamp, data.iotId, data.data);\n    }\n                \n}\n",
  "sourcePath": "/home/mahir/New_code/RPI/LOCAL BLOCKCHAIN/contracts/Store.sol",
  "compiler": {
    "name": "solc",
    "version": "0.8.19+commit.7dd6d404.Emscripten.clang"
  },
  "schemaVersion": "3.4.13",
  "updatedAt": "2023-06-13T11:21:22.749Z",
  "networkType": "ethereum",
  "devdoc": {
    "kind": "dev",
    "methods": {},
    "version": 1
  },
  "userdoc": {
    "kind": "user",
    "methods": {},
    "version": 1
  }
}