{
  "contractName": "Store",
  "abi": [
    {
      "anonymous": false,
      "inputs": [
        {
          "indexed": false,
          "internalType": "string",
          "name": "message",
          "type": "string"
        }
      ],
      "name": "Message",
      "type": "event"
    },
    {
      "inputs": [
        {
          "internalType": "string",
          "name": "",
          "type": "string"
        }
      ],
      "name": "data_finder",
      "outputs": [
        {
          "internalType": "uint256",
          "name": "",
          "type": "uint256"
        }
      ],
      "stateMutability": "view",
      "type": "function",
      "constant": true
    },
    {
      "inputs": [
        {
          "internalType": "uint256",
          "name": "",
          "type": "uint256"
        }
      ],
      "name": "sensors",
      "outputs": [
        {
          "internalType": "string",
          "name": "registrationId",
          "type": "string"
        },
        {
          "internalType": "string",
          "name": "data",
          "type": "string"
        }
      ],
      "stateMutability": "view",
      "type": "function",
      "constant": true
    },
    {
      "inputs": [
        {
          "internalType": "string",
          "name": "_registrationId",
          "type": "string"
        },
        {
          "internalType": "string",
          "name": "_data",
          "type": "string"
        }
      ],
      "name": "storeSensor",
      "outputs": [],
      "stateMutability": "nonpayable",
      "type": "function"
    }
  ],
  "bytecode": "0x608060405234801561001057600080fd5b50610a35806100206000396000f3fe608060405234801561001057600080fd5b50600436106100415760003560e01c8063412f2e82146100465780637024709114610077578063ba6468f6146100a7575b600080fd5b610060600480360381019061005b919061034e565b6100c3565b60405161006e92919061040b565b60405180910390f35b610091600480360381019061008c9190610577565b610207565b60405161009e91906105cf565b60405180910390f35b6100c160048036038101906100bc91906105ea565b610235565b005b600081815481106100d357600080fd5b90600052602060002090600202016000915090508060000180546100f690610691565b80601f016020809104026020016040519081016040528092919081815260200182805461012290610691565b801561016f5780601f106101445761010080835404028352916020019161016f565b820191906000526020600020905b81548152906001019060200180831161015257829003601f168201915b50505050509080600101805461018490610691565b80601f01602080910402602001604051908101604052809291908181526020018280546101b090610691565b80156101fd5780601f106101d2576101008083540402835291602001916101fd565b820191906000526020600020905b8154815290600101906020018083116101e057829003601f168201915b5050505050905082565b6001818051602081018201805184825260208301602085012081835280955050505050506000915090505481565b60006040518060400160405280848152602001838152509080600181540180825580915050600190039060005260206000209060020201600090919091909150600082015181600001908161028a919061086e565b5060208201518160010190816102a0919061086e565b5050506000805490506001836040516102b9919061097c565b9081526020016040518091039020819055507f51a7f65c6325882f237d4aeb43228179cfad48b868511d508e24b4437a8191376040516102f8906109df565b60405180910390a15050565b6000604051905090565b600080fd5b600080fd5b6000819050919050565b61032b81610318565b811461033657600080fd5b50565b60008135905061034881610322565b92915050565b6000602082840312156103645761036361030e565b5b600061037284828501610339565b91505092915050565b600081519050919050565b600082825260208201905092915050565b60005b838110156103b557808201518184015260208101905061039a565b60008484015250505050565b6000601f19601f8301169050919050565b60006103dd8261037b565b6103e78185610386565b93506103f7818560208601610397565b610400816103c1565b840191505092915050565b6000604082019050818103600083015261042581856103d2565b9050818103602083015261043981846103d2565b90509392505050565b600080fd5b600080fd5b7f4e487b7100000000000000000000000000000000000000000000000000000000600052604160045260246000fd5b610484826103c1565b810181811067ffffffffffffffff821117156104a3576104a261044c565b5b80604052505050565b60006104b6610304565b90506104c2828261047b565b919050565b600067ffffffffffffffff8211156104e2576104e161044c565b5b6104eb826103c1565b9050602081019050919050565b82818337600083830152505050565b600061051a610515846104c7565b6104ac565b90508281526020810184848401111561053657610535610447565b5b6105418482856104f8565b509392505050565b600082601f83011261055e5761055d610442565b5b813561056e848260208601610507565b91505092915050565b60006020828403121561058d5761058c61030e565b5b600082013567ffffffffffffffff8111156105ab576105aa610313565b5b6105b784828501610549565b91505092915050565b6105c981610318565b82525050565b60006020820190506105e460008301846105c0565b92915050565b600080604083850312156106015761060061030e565b5b600083013567ffffffffffffffff81111561061f5761061e610313565b5b61062b85828601610549565b925050602083013567ffffffffffffffff81111561064c5761064b610313565b5b61065885828601610549565b9150509250929050565b7f4e487b7100000000000000000000000000000000000000000000000000000000600052602260045260246000fd5b600060028204905060018216806106a957607f821691505b6020821081036106bc576106bb610662565b5b50919050565b60008190508160005260206000209050919050565b60006020601f8301049050919050565b600082821b905092915050565b6000600883026107247fffffffffffffffffffffffffffffffffffffffffffffffffffffffffffffffff826106e7565b61072e86836106e7565b95508019841693508086168417925050509392505050565b6000819050919050565b600061076b61076661076184610318565b610746565b610318565b9050919050565b6000819050919050565b61078583610750565b61079961079182610772565b8484546106f4565b825550505050565b600090565b6107ae6107a1565b6107b981848461077c565b505050565b5b818110156107dd576107d26000826107a6565b6001810190506107bf565b5050565b601f821115610822576107f3816106c2565b6107fc846106d7565b8101602085101561080b578190505b61081f610817856106d7565b8301826107be565b50505b505050565b600082821c905092915050565b600061084560001984600802610827565b1980831691505092915050565b600061085e8383610834565b9150826002028217905092915050565b6108778261037b565b67ffffffffffffffff8111156108905761088f61044c565b5b61089a8254610691565b6108a58282856107e1565b600060209050601f8311600181146108d857600084156108c6578287015190505b6108d08582610852565b865550610938565b601f1984166108e6866106c2565b60005b8281101561090e578489015182556001820191506020850194506020810190506108e9565b8683101561092b5784890151610927601f891682610834565b8355505b6001600288020188555050505b505050505050565b600081905092915050565b60006109568261037b565b6109608185610940565b9350610970818560208601610397565b80840191505092915050565b6000610988828461094b565b915081905092915050565b7f53656e736f722064617461207375636365737366756c6c792073746f72656400600082015250565b60006109c9601f83610386565b91506109d482610993565b602082019050919050565b600060208201905081810360008301526109f8816109bc565b905091905056fea26469706673582212201ef055d730c989b187fcee8573d901fc009e2ccd186d3b98ede725e6a075213964736f6c63430008130033",
  "immutableReferences": {},
  "source": "// SPDX-License-Identifier: MIT\npragma solidity ^0.8.17;\n\ncontract Store {\n    event Message(string message);\n    struct sensordata {\n        string registrationId;\n        string data;\n    }\n    sensordata[] public sensors;\n    mapping(string => uint256) public data_finder;\n\n    function storeSensor(\n        string memory _registrationId,\n        string memory _data\n    ) public {\n        sensors.push(\n            sensordata(_registrationId, _data)\n        );\n        data_finder[_registrationId] = sensors.length;\n        emit Message(\"Sensor data successfully stored\");\n    }\n  \n}\n",
  "sourcePath": "/home/mahir/New_code/RPI/LOCAL BLOCKCHAIN/contracts/Store.sol",
  "compiler": {
    "name": "solc",
    "version": "0.8.19+commit.7dd6d404.Emscripten.clang"
  },
  "schemaVersion": "3.4.13",
  "updatedAt": "2023-06-07T12:08:38.807Z",
  "networkType": "ethereum",
  "devdoc": {
    "kind": "dev",
    "methods": {},
    "version": 1
  },
  "userdoc": {
    "kind": "user",
    "methods": {},
    "version": 1
  }
}